:0400000013C248C21D
:100004006DC2FCCFFBCFFACFF9CFF8CF77C26DC268
:10001400F5CFF4CFF3CFF2CFF1CFF0CFEFCFEECFD8
:10002400EDCF050720600000000000000004040478
:10003400040400040A0A0A000000000A0A1F0A1F36
:100044000A0A041E050E140F0403130804021918E7
:10005400060905021509160604020000000008043A
:10006400020202040802040808080402000A041F29
:10007400040A000004041F04040000000000060435
:10008400020000001F00000000000000060600003F
:100094001008040201000E11191513110E040604B0
:1000A4000404040E0E11100804021F1F0804081093
:1000B400110E080C0A091F08081F010F1010110E59
:1000C4000C02010F11110E1F1008040202020E117E
:1000D400110E11110E0E11111E1008060006060055
:1000E40006060000060600060402100804020408BE
:1000F4001000001F001F0000010204080402010E8A
:100104001110080400040E11101615150E0E11110D
:10011400111F11110F11110F11110F0E11010101F6
:10012400110E070911111109071F01010F01011F08
:100134001F0101070101010E11010119110E111115
:10014400111F1111110E04040404040E1C080808E4
:10015400080906110905030509110101010101013D
:100164001F111B1511111111111113151911110E54
:1001740011111111110E0F11110F0101010E1111A5
:10018400111509160F11110F0509111E01010E1089
:10019400100F1F0404040404041111111111110E91
:1001A40011111111110A0411111115151B1111113D
:1001B4000A040A111111110A040404041F1008048A
:1001C40002011F1C04040404041C0001020408109E
:1001D4000007040404040407040A110000000000DA
:1001E40000000000001F0204080000000000000ED0
:1001F400101E111E01010D1311110F00000E01013B
:10020400110E1010161911111E00000E111F010EEF
:100214000C12020702020200001E111E100C010142
:100224000D131111110400060404040E08000C0837
:100234000809060202120A060A1206040404040447
:100244000E00000B1515111100000D1311111100F2
:10025400000E1111110E00000F110F010100001604
:10026400191E101000000D1301010100000E010EF3
:10027400100F0202070202120C00001111111916CC
:1002840000001111110A040000111115150A0000D3
:10029400110A040A11000011111E100E00001F089B
:1002A40004021F08040402040408040404040404EB
:1002B4000402040408040402021508000000001FDC
:1002C40011111111111F080D2E0D00000000000066
:1002D400000000000000000040402020101008082A
:1002E40004040202007F7F63636363636363637F69
:1002F4007F001C1C18181818181818181818007FD4
:100304007F6060607F7F0303037F7F007F7F606087
:10031400607F7F6060607F7F0063636363637F7F70
:100324006060606060007F7F0303037F7F606060C4
:100334007F7F007F7F0303037F7F6363637F7F008F
:100344007F7F60606060606060606060007F7F638A
:1003540063637F7F6363637F7F007F7F6363637F08
:100364007F6060607F7F000000001818000018188C
:10037400000000006400C80090012003F8FFFCFFA7
:10038400FEFFFFFF000103070F1F3F7FFF00030372
:10039400020002008090889800002E006F00430045
:1003A4003A002E2E002F0020200001002D4E414E39
:1003B40000494E460000010002009C030200600157
:1003C4009E0302006201A00302006401A203020072
:1003D4006601A40303006801A60303006B01A603DE
:1003E40002006E019E0302007001A9030200720163
:1003F400A90303007401AB0303007701AB030300FB
:100404007A01AB0302007D01A40303007F01AB0367
:1004140003008201AB0303008501AB030100B401B7
:10042400AE030000F894EE27ECBBF1E0FBBFEBBF9A
:10043400E5BF8DE0A2E0BB27ED938A95E9F780E064
:1004440094E0A0E6ED930197E9F7EAEBF3E08591F8
:100454009591009761F0A591B59105901590BF0114
:10046400F00105900D920197E1F7FB01F0CFEFE564
:10047400EDBFE4E0EEBFC0E6D1E034C2E2E0E3BFAA
:10048400E0E0E2BFE1E002C0E0E0E3BFE9BF0895DD
:100494000A921A92FA926A937A938A939A93AA93F3
:1004A400BA93EA93FA93EFB7EA935A924A92A72D32
:1004B400AFD26A929A928A92AB2DC2D2E5DFAA2475
:1004C400E991EFBFF991E991B991A9919991899134
:1004D40079916991F9901990099018957ED9A3940E
:1004E400E8E0EA1508F4AA2411C077D9D394E2E32A
:1004F400ED1518F4E1E02E26DD2408C06ED9C3946E
:10050400E4E0ED1518F4CC24E2E02E26E991EFBFE7
:10051400E9911895AA93249701DDA091AE01B091B9
:10052400AF01D3D2EA83FB836C837D83AA81BB8131
:100534008C819D81E0E0F0E060E271E403DC9BDB10
:100544008F014FD955D954D9D801E4E6F0E07BDCCA
:1005540052D97CD7D80152D976DC53D9EBD6A0E650
:10056400B1E089D7D801E4E6F0E085DC4AD9E2D6E7
:10057400EF81E85EEA933CD9A2E6B1E06ED7EF8161
:10058400E25EEA93EF81ED5FEA93A4E6B1E065D71A
:10059400CCDC5AC7E5E0F0E038D9E4E0F0E035D946
:1005A400A7E0B0E025D2E6E0F0E02FD9E9E0F0E002
:1005B4002CD9E8E0F0E029D9ABE0B0E031D20895DD
:1005C400AA9326D9A52D2FD941D7A52D30D9B2D696
:1005D400A6E6B1E050D7A42D26D9ACD6A42D27D9B0
:1005E400A9D6E2E0EA1511F426D909F004C010D91D
:1005F400A8E6B1E032D7E1E0EA1511F41CD909F01C
:1006040006C023D9E55E29D9ABE6B1E026D7AA20F6
:1006140049F4E0E021FCE1E024D9E2E0F0E02EDC62
:10062400309709F006C011D9EE5E17D9AEE6B1E0F5
:1006340014D761C8AA93D5D8E9810FD9A92DF3D8C5
:1006440005D7A92DF4D876D6A0E7B1E014D7A82D04
:10065400EAD870D6A82DEBD86DD6A2E7B1E00BD7B7
:10066400AB2DE1D867D6AB2DE2D864D6E4D819F423
:10067400E3E0EA1509F006C0E981EE5EEED8A4E7EE
:10068400B1E0EBD6D8D819F4E4E0EA1509F006C0D5
:10069400E981EC5DE2D8A7E7B1E0DFD6CCD819F464
:1006A400E5E0EA1509F006C0E981EA5CD6D8AAE7D4
:1006B400B1E0D3D620C8AA9394D8D6D8DCD89ED893
:1006C400D5DB99D8C3D6D7D899D8D8DB94D832D625
:1006D400ADE7B1E0D0D6D3D891D8C8DB8CD82AD630
:1006E400CED88CD8CBDB87D825D6E6E0EA1511F432
:1006F40020FC01C00AC075D8E981E45EEA93E9816F
:10070400EF5FEA93AFE7B1E0A8D6E7E0EA1511F4AA
:1007140020FC01C005C065D8A7D8A2E8B1E09DD6E9
:10072400E8E0EA1511F420FC01C007C05AD8E981B9
:10073400E35093D8A5E8B1E090D6DDC7E1E0EA152F
:10074400A1F4819908C0EBE3E41511F4442401C039
:100754004394819BFECF809908C0442019F4EBE3B5
:100764004E2E01C04A94809BFECFE2E0EA15A1F42C
:10077400819908C0E7E1E51511F4552401C05394AB
:10078400819BFECF809908C0552019F4E7E15E2EC5
:1007940001C05A94809BFECFE3E0EA15B1F481993D
:1007A40009C0EFE1E91519F4E1E09E2E01C093942C
:1007B400819BFECF809909C0E1E0E91519F4EFE1CE
:1007C4009E2E01C09A94809BFECFE4E0EA15B1F41A
:1007D400819909C0ECE0E81519F4E1E08E2E01C01E
:1007E4008394819BFECF809909C0E1E0E81519F458
:1007F400ECE08E2E01C08A94809BFECFE5E0EA15E2
:10080400A1F4819908C0E3E6EB1511F4BB2401C0FF
:10081400B394819BFECF809908C0BB2019F4E3E612
:10082400BE2E01C0BA94809BFECFE6E0EA15F1F437
:1008340081990DC028D84DDBEB3319F424D8E0E0BE
:1008440003C021D846DBEF5F50DB819BFECF80994C
:100854000DC019D83EDBE03019F415D8EBE303C022
:1008640012D837DBE15041DB809BFECFE7E0EA158D
:10087400F1F481990DC00AD82CDBE73119F406D8BC
:10088400E0E003C003D825DBEF5F2FDB819BFECFC5
:1008940080990DC0FBD71DDBE03019F4F7D7E7E1F1
:1008A40003C0F4D716DBE15020DB809BFECFE8E0E9
:1008B400EA15B9F4819909C0ECD7EF5F16DBE9D7E3
:1008C400E23019F4A2E0B0E0E8D780990AC0E1D799
:1008D400E1500BDBDED7E03021F4A2E0B0E0E1E050
:1008E40004DB08952697EFE3E7BBE0E0E8BBE2E032
:1008F400E4BBE0E0E5BBE0EEE1BBEFE0E2BBE0E05F
:10090400E3BFE2BFEFBDE2E0EEBDE0E0EDBDECBD74
:10091400E7BDE6BDEBBDEABDE9BDE8BDE5E0E9BF85
:10092400EBB7E06CEBBFEAE0E5BFE0ECEABFB5D8BB
:10093400B7D7B6D7A0E048D00BD9E6E2F0E0E88319
:10094400F983E0E0EA83EB83EC83ED83DE01BCD141
:100954007894E5E0EA93E1E1EA93EAE7EA93A1E136
:10096400B7D5E5E0EA93EFE2EA93EAE7EA93AFE288
:10097400AFD58FD7EF3F39F4A2E0B0E08ED783D75D
:100984008CD784D78AD7E091AE01F091AF013DD7DF
:1009940087D786D7A1E0CFD0EAE2EA93A4E110DEBC
:1009A400EFE1EA93A5E246DEEBE2EA93A4E383DE19
:1009B400AA2031F4EFDDE6E4EA93A2E0ABDD02C065
:1009C4005DDDBCDEE9CFFFCF6ED7E370EA83E9815A
:1009D400E03019F0EA81E061EA8368D719F0EA812E
:1009E400E068EA8366D7A7E091D8AA8165D7C5C62F
:1009F400BA93AA935ED7A0E05FD760D764D7A881E3
:100A0400B98163D766D7AC81BD81EC935AD85BC2F8
:100A1400AA934FD7A0E063D767D76BD74DD7ADC69E
:100A24006DD747D7A3E048D749D7AE81BF814DD70B
:100A3400AC81BD814AD74DD764D7EC9342D804C565
:100A4400AA9337D7A3E062D8AB8153D74DD747D702
:100A540033D7AEC659D77CD8E03019F4E0E018811A
:100A64008CC6E981FA81309759F0A5E5B7D810E032
:100A74004ED750D7AE2FB2D81F5F1830C8F302C07C
:100A8400ACECACD8E1E0188178C638D745DAAC8153
:100A9400BD8144D719F4E0E046DA15C2AEEB9ED826
:100AA40010E028E831E03F932F932F5F3F4F91D818
:100AB400AF91BF91EC931F5F1930A8F3E8E8F1E020
:100AC40030D796D8B3D92FDAFEC11ED720D7DDDFB1
:100AD400E03011F429D751C6E0918C01E295EF7012
:100AE400E695E3701E2F13D719D711F41DD745C609
:100AF400A4E474D8E12FA8E7B3E01CD7E3D91ED847
:100B040006D7C3DFE03011F40FD737C621D8E12F61
:100B1400A0E8B3E00FD7D2D9A0918801B0918901A0
:100B2400EA23FB2379D9E0D8A0E0B0E080E89DE394
:100B340009D9188122C6AA93AB81BC81EFD611F4DE
:100B4400E0E0D1C5E881E295E07FEE0FEF61E88354
:100B5400AEE444D8A98142D8AA8140D8A8813ED81D
:100B6400AB81BC8192DFE03011F4E0E0BCC5A09120
:100B74008B01EA81EA1751F4A0918A01E981EA170D
:100B840029F4A0918C01E881EA1711F0E0E0ABC5EB
:100B9400AB81BC81C3D611F4E0E0A5C5A8E41ED89E
:100BA400AFE0CED6D5D79FC5000000000000089561
:100BB400AA939698979AE7B3EF60E7BBC3D6E295FA
:100BC400EF70EA2BE8BBF0DF9798BCD6EF70EA2B06
:100BD400E8BBBDD6979856C01A93BCD6979AE4DF63
:100BE400E6B3E295E07F1E2F9798B1D6E6B3EF7097
:100BF4001E2B9798E12F13C01A939598ABD6979A0A
:100C0400D3DFE6B3E870A0E00CD91E2F97989FD6E7
:100C14009798CADF103099F781E08A95F1F7199116
:100C24000895AA93E9DF959AA881C2DF2BC0E4DF77
:100C3400959AD2DF0895AA93DFDFA881B9DF22C095
:100C4400AA93E881EF71E0688AD6A881A03218F0EF
:100C5400E981E068E983E981E295EF70E0687FD695
:100C64004AC5AA937ED622D611F0ECE001C0E8E092
:100C740076D61CD611F0E2E001C0E0E0E093B001CA
:100C840070D673D62196089547D930E0E091920149
:100C9400E03009F03FEF69D600E0003480F400D67C
:100CA400A02F0F5FCDDF10E1E12F1150E03031F0C4
:100CB400A32FB7DF81E08A95F1F7F6CFEECFF0D519
:100CC400A0E0FDD330D974C51FD68F9A97988E9A19
:100CD400969A8D9A9598BC9AA2E332D6C498A1E0CC
:100CE4002FD6C49AA1E02CD69698E7B3EF60E7BB61
:100CF40010E0163090F4979AE8B3E07FAE2FE12F1E
:100D0400F0E0EE56FC4FE491EA2BE8BB87E08A95CD
:100D1400F1F797982ED61F5FECCFA8E049DF29D6CC
:100D2400A1E089DFAFE00CD6E0E0E093B301E0930B
:100D3400B201A6E080DFA4E27EDFA0E47CDFA2E0D3
:100D44007ADFE0E0E093B0019FDFA1E08ADFE1E039
:100D5400E0939101E0E0E0939201E1E0E0939701F8
:100D6400E0939801E981FA81309759F0D0D5A2D85F
:100D740005D6CDD512969ED806D6C9D514969AD83E
:100D840005C006D6FBD504D6FED502D6E093AC0149
:100D9400F093AD01E1E0E0939901EFEFE0939A0164
:100DA400E1E0E093A101E2EAF1E02FD5EFEFEA936D
:100DB400A8E0B0E08BD4E1E01881DFC4AA93E98114
:100DC400EA93A9813DDF33DFE981EF70E83018F061
:100DD4002EDFE093B1012BDF8EC465D5EA93AA819F
:100DE4002FDFEA81EF70E83018F0A091B10119DF2C
:100DF400A88117DFC2C4AA9391D8AC81A03818F493
:100E0400AB81A03410F091D86EC4AFD5C4D5AC81F9
:100E1400D5DF1E2FEC81E770A7E057D8EA1BA1E0CD
:100E2400EBD70E2FEA81E03011F0102B03C0E02F36
:100E3400E0951E23B0D5AFD5A12FCFDF76D853C40C
:100E4400AA931A9392D5ED81EA93AD81A7D51E2F6B
:100E5400E981E73011F0E83031F4EB81EA93AA81BB
:100E64004CD4EB830EC0E33021F4EB81E095EB83AB
:100E740002C0E03009F402C0E93009F402C0EA30EB
:100E840021F4EA81E0951E2302C0E23029F4EA81CC
:100E9400AB81EA231E2B0EC0E13029F4EA81AB8139
:100EA400EA231E2707C0E43029F4EA81E095AB81E8
:100EB400EA2B1E23ED81EA93ED81EA93A12F7AD4E4
:100EC400AE2F8BDF188126960895AA93279722D8F0
:100ED400AC89A03848F4AB89A03430F4AA89A03096
:100EE40019F0A989A03009F4D7C3EA895AD52E2F5D
:100EF4002887EA89E770EB87E03019F0E885EF5F2F
:100F0400E8870A89AC89BB27EA894FD5A138E0E094
:100F1400BE0720F0AC89E0E8EA1BEA8BE989EA879E
:100F2400AB89BB27E98941D5A134E0E0BE0720F0B5
:100F3400AB89E0E4EA1BE98BED85E63009F047C0B4
:100F4400E889E13009F4A8C3E33039F4E091AC0155
:100F5400F091AD01309709F49FC3EB85E03019F4AB
:100F6400AA890A17B1F0E22FAE85BF8522D5198967
:100F7400103079F0322F3F933F5FE885AF91AE1781
:100F840010F41DD5F8CFE22FAE81BF8112D51150D8
:100F9400EFCF2989EA85E217C9F0A22FBB27E8859C
:100FA40019D5AE85BF8519D5EE83FF832F932F5FA7
:100FB400EA85AF91AE1750F430E03F933F5FE88588
:100FC400AF91AE1710F4FBD4F8CFF0CF0CC0E930DA
:100FD40011F4E0E003C0EA3031F4EFEFEA87EA937A
:100FE400AE858BD3EA87EC89E7703E2FE8E0E31BFC
:100FF4002E2F522FAA892A1710F05A890CC030308C
:1010040051F0432FAA89A93018F4EA89E21B4E2F24
:10101400E42FE6D444913A93A52F67D35E2FAB8592
:101024002A1718F4EB85E21BEB87EB85D9D40490DF
:101034000C869BD4E989E150E98BEF5F09F4BEC0CB
:1010440010E00C89EE85FF85EE83FF83303009F4D0
:1010540074C04B87AD85A63009F042C0EA891E17DB
:10106400F0F50A93AC899AD4E523AE2FE32FCCD6BE
:10107400E987BAD4BCD41E2EE32FA52FC5D6E0959C
:10108400E121A985EA2BE987AA892A1720F4E02F10
:1010940088D4EF3030F0A8D4AFD4B7D3AC856FD3B5
:1010A4001EC0ADD410F4EC85EB87085F0A93AC89BD
:1010B40075D4AB85EA23AE2FE22F9ED6EA87E22FC2
:1010C400AB859AD6E095A985EA23AA85EA2BEA8717
:1010D4008BD499D49AD3AD8552D3185FBFCF2CC08B
:1010E400EA891E1748F5ED85E93011F0EA3009F474
:1010F40008C07AD488D466277727DF01CB0125D3AB
:10110400EA8787D4E32FAC8577D6EA935A93A989E3
:1011140097DEAA892A1780F4E02F43D4EF3060F4D5
:101124006ED410F4EC85EB87085F73D4E22FAC85A2
:101134006BD673D4185FD4CF36C05B87EA891E1789
:1011440090F55DD410F4EC85EB87ED85E93011F072
:10115400EA3009F409C0AD85A63019F4AB85AF3F78
:1011640019F042D444D4EA87AD85A63089F43CD43E
:1011740043D44BD30A93AF8911D4AE85EA230E2E00
:10118400EE85E095AD85EA23E029AE2FF8D203C0C1
:1011940040D4EC8542D4EE81FF813196EE83FF8307
:1011A400085F185FCBCFEB89EF5FEB8BE885AE85EB
:1011B400BF85F0E012D4EE87FF873CCF6DC2AA93BF
:1011C400ADD6AC81A03110F0EFE0EC83AB81A4305C
:1011D40010F0E3E0EB83EB81F0E0E856FC4FA491E0
:1011E400EC81E695EA2B1E2FBCD3A12F24DD1FDD55
:1011F400EC81E17011F01BDD0E2FA12F1CDDEC81C1
:10120400E17011F0A02F0DDDAA810BDD8ED66BC22B
:1012140075D377D37BD614F0BBD36DC272D3A03809
:10122400E0E0BE071CF0EFE7F0E065C2E881F98179
:1012340062C264D366D36AD614F0AAD35CC261D303
:10124400A034E0E0BE071CF0EFE3F0E054C2E88114
:10125400F98151C253D32397E5D38F01002E012A7C
:1012640011F496D358C0E4D30F82E2D30E82E0D3B4
:101274000886EB85A885EA1710F48AD34CC0F801D8
:101284000F5F1F4F5491A885BB27EE27A50FBE1FE4
:10129400EB85F0E0EA17FB0710F07AD33CC0EF814E
:1012A400E030B1F0A985BA85EC937BD34E2FEF8162
:1012B400E77009F04F5FA885EB85EA1BF0E0DF01DA
:1012C400EE8188D3DF01E42F85D3E00FF11F23C023
:1012D4009801E52FF0E00E0F1F1FA885AF5FA887C8
:1012E400A150EB85AE1790F4F901E4915AD34E2F37
:1012F400F9012F5F3F4FE491E77009F04F5FAE8132
:10130400BB27E42F67D30E0F1F1FE7CFF901E4912A
:1013140094D3EC93F80105D62C960895E0E090D38D
:10132400A0919401BB278FD340D3E09198013DD382
:1013340091D30895AA93219775D3309709F44EC099
:10134400AF81AA3009F447C053D2DE01179682DF79
:10135400AF01309709F477C0E0919701AE81EA0FAD
:101364003E2FA0919301BB27F0E037D38F010138C2
:10137400E0E01E0718F0032F1127D0DF6FD371D3DD
:10138400E885EA9360D3EA93E1E0EA935A934A93B7
:10139400A7E09BDD63D3AE81EA0F63D3E0919701AD
:1013A400EA9351D3EA937CD2F3D2BBD28EDD56D3E7
:1013B400EA93A091940147D3EA0FEA933A93E09118
:1013C4009801EA936DD2E4D2ACD27FDDE0E8F0E09C
:1013D400E017F10711F4A2DF36C033C0AF81AA30A1
:1013E40041F13CD3DED23E2FE0919401E295EF70BF
:1013F4002E2F3A932A93A985E2DEE32FEE0FEE0F08
:10140400EE0F1ED3A0E12A9FF001E093940126D3AE
:1014140028D3E8E0EA93E0E1EA9342D2B9D281D258
:1014240054DD1CD3F0E038968F010038E0E01E074D
:1014340040F000E010E0E0919401F0E07096DF01EC
:1014440009D3009393016DD5289608952CD2EA937D
:10145400AA8135D0A8816EDF90C156D29CD2AC81CE
:101464002ED055D257D21E2FE03019F0A12F62DFB3
:10147400F8CF188138C148D24AD24CD21E2FE0305E
:1014840019F0A12F57DFF8CF188177C10CD2EA9356
:10149400EA81EA93E0919A01AA81EA2319F0E091A2
:1014A400910102C0E0919201AE2FA5DCE881EE0F1C
:1014B400E883FCD111F4E1E0E883E8815EC1AA93FA
:1014C400A981BB27A5DEBCD2A881BB27C3D213C187
:1014D400AA932B971FD5AC89BB279ADEEC8BAA89DC
:1014E400BB2796DEEA8BAB89BB27A3DEEB8BA989EE
:1014F400BB279FDEE98BEA89A3D2E989E0939401B3
:10150400E1E0E887E989AB89EA1761F51C89AA89D2
:101514001A1731F41A93EC89EA93A1E0B7DFBCC03F
:10152400AA891A1730F4EA89E11B0E2F41E050E032
:1015340006C0AA89E12FEA1B0E2F4FEF5FEF3B890C
:10154400E0E0EE8393D230F499D23395AA859EDFFE
:10155400EF83F8CFEF81E887140FE02F0150E030DC
:1015640071F79AC0EA89AC89EA1739F53B89A989E8
:101574003A1730F4E989E31B2E2FE1E0F0E006C0CE
:10158400A989E32FEA1B2E2FEFEFFFEFED87FE87EC
:101594001C89E0E0EE836AD238F41A9313953A93E7
:1015A400AA8574DFEF83F7CFEF81E887ED853E0FDF
:1015B400E22F2150E03061F76FC0E0E0EE8356D2B5
:1015C40008F06AC01C893B89E1E02E2F0E2FAA89FE
:1015D400BB27EC89F0E0AE1BBF0BAD01552322F411
:1015E4000FEFFA01FDD3AF01FA01EE0FFF1FEF87F2
:1015F400F88BA989BB27EB89F0E0AE1BBF0BAD8745
:10160400BE87AE85AA2332F42FEFED85FE85E8D39D
:10161400ED87FE87ED85FE85EE0FFF1FEB87FC87C8
:101624002DD2A1E033DFE887E0E0E987EA87AD85E2
:10163400BE854A175B07A4F0100FEB85FC8521D209
:10164400FCD14A175B0724F4320FAF85B8891ED248
:1016540015D2AA851BDFE887EA89E11769F715C067
:10166400320FEF85F8890DD2ED85FE85E6D1EA17B4
:10167400FB0724F4100FAB85BC8508D2FFD1AA85E3
:1016840005DFE887E989E31759F7EB89EF5FEB8B0F
:10169400E989EF5FE98B93CF44D465960895AA93C3
:1016A400E881E295EF70AE2FAA0FAA0FEA0FEE0FB2
:1016B400A991AF70EA0F0895AA93A991EE27AA50B1
:1016C40012F0E05FFCCFA65FEA0F089517D1B9814D
:1016D400A881109631F0FC81EB816A8161931197A6
:1016E400E9F7EB81FC8125960895AA93E88178D1E6
:1016F400A491E98181D322960895AA931A93E9814A
:10170400E73011F0EA3019F41091910109C0E93081
:1017140019F41091920104C0E830A1F41091A101D0
:10172400E0919201E03049F0103019F0EFEF1881A8
:1017340024C0EA81E095188120C0103019F4E0E05B
:1017440018811BC0EA81188118C0D8D0EA81E13021
:1017540021F4E881F981E49110C0E23019F4D1D088
:10176400B8D30BC0E33039F4CCD0E091AA01F091A6
:10177400AB01099502C0C5D0EC9123960895AA93B4
:10178400EB81E03021F4E881C2D0EC9311C0E23067
:1017940021F4E881BCD0A9D30BC0E33049F4E9813A
:1017A400FA8133D0AA81E091AC01F091AD010995A1
:1017B40024960895AA93A991A0FBE7F9A1FBE6F961
:1017C400A2FBE5F9A3FBE4F9A4FBE3F9A5FBE2F929
:1017D400A6FBE1F9A7FBE0F90895EA93EFB7EA93D2
:1017E4000895E6E2F0E0E0939501F0939601089500
:1017F400EF81EA930895E05DAE2F0895EAE0F0E00A
:101804000895DF01FBDF37D3F6CFFA93EA93089507
:10181400EAECF2E0E0939501F0939601E981EA9312
:10182400E981EA930895B0E0E9DF20D3E4CFBB2750
:10183400E5DF24D3E0CFE0E020FCE1E0F0E0DF01ED
:10184400E2E0F0E01BD330970895EAECF2E0E09395
:101854009501F0939601E9810895EA93E981EA9369
:101864000895F0E0DF010895E981E65FEA93E981F4
:10187400EF5FEA930895A1E0B0E02BD3F2CFA0E0AC
:10188400B0E027D3EECFA0E0B0E00895A1E0B0E04F
:101894000895A2E0B0E01DD30895E0E026D30895B2
:1018A400E0E0EA930895AA93EA810895E881E0309C
:1018B4000895F8D0A0ED2AC129D103C1F3D0A1ED38
:1018C40025D1A1E008C1AE2FEACEEC93A1E003D16B
:1018D400FACFAA81BB81EC93A0E0FDD0F4CF16D15E
:1018E400A881EADEAE2F089511D1A981E5DEAE2FDD
:1018F40008950CD1AA81E0DEAE2F0895BA93AA937D
:101904000895A881B9810895F9DF1A930895A981EA
:10191400BA810895ED91A983BA8308959BD8E030E4
:10192400089573DFA9E00895E0E0FCE36CE176EC50
:1019340018810895F0E0EE0FFF1FEA0FFB1F0895D2
:10194400B0E0FCC0E8B3E07FAE2FE88108952CD965
:10195400979A2AC9969AE7B3E07FE7BB0895AE2F1A
:101964006AC9E091B001E062FACFE091B001E462AB
:10197400F6CF88EC90E00197F1F70895E093950194
:10198400F09396010895E093AA01F093AB010895B2
:10199400E0E0F0E00895EC81EA9308950FDAAE2FC9
:1019A40009CFE695E695E6950895F0E0AE0FBF1FE2
:1019B4000895F0E0EA0FFB1FEE83FF830895E889A2
:1019C400EA93EF81F8853196EF83F88731971DDF2D
:1019D400A0E0D5CEF0E02FD20895EA0FFB1F0895C2
:1019E400F0E0E857FC4F0895E889EA930895AF8141
:1019F400B88588279927A9CEEF81F8850895AA8903
:101A0400A11BA8300895F8DF3196EF83F88731974A
:101A140008950A93EC89EA930895EA93EE85EA938C
:101A2400A9890ECA77D2E0919501F09196010895A3
:101A3400F8010F5F1F4F04900895A985BA85089592
:101A4400E09393010895E0919501F0919601319608
:101A5400E4910895EEDBE09394010895E0919301FD
:101A64000895EA93E0919401EA930895AE81AF5FFB
:101A7400AE83A150E0919901AE1708951A933A9359
:101A84000895DBDFAADFE987FA870895E985FA85F7
:101A9400EA1BFB0BE987FA870895AD98AC98A59AE1
:101AA400A49815C0A498A598EE2700009C9B0895BF
:101AB4009D9B089504D0A49A02D0A59AE1E067E022
:101AC40007C0A49AA59A03D0A598F9DFA4986DE05D
:101AD4006A95F1F7089578E0A598F1DF9D9BFECF14
:101AE400EEDF88949C990894A59AF1DFEE1F7A950D
:101AF40099F77A2F772311F4A49801C0A49ADFDF11
:101B0400A598E5DFA59ADBDFA498D9CF78E0AA0FE2
:101B140010F4A49801C0A49ADADFA598D0DF9D9BA5
:101B2400FECFCDDFA59A7A9591F7A498C8DFA59842
:101B3400CEDFE1E09C99EE27A59AC1CF109639F04B
:101B440088EE93E00197F1F7A8951197C9F70895E6
:101B5400EE27AA98A29A80EE91E00197F1F7A29855
:101B640083E18A95F1F79A9B089585E68A95F1F7C2
:101B74009A9BE1E086E891E00197F1F70895A29A33
:101B840083E08A95F1F7A2988FE08A95F1F788941B
:101B94009A990894E7958BE68A95F1F70895E89465
:101BA400A29A83E08A95F1F770FDA29881E18A9563
:101BB400F1F79A9903C070FF03C0089570FF089568
:101BC40084E68A95F1F7A29887E08A95F1F76894FC
:101BD400089568E0D4DF6A95E9F708957A2F68E0FC
:101BE400EE27DDDF26F477956A95D9F7E395089516
:101BF400EE27AA2389F08A2F68E1A881B98198E0A9
:101C0400FD917F2F7E27779508F4E627E795F695D3
:101C14009A95B9F78A9599F722960895552342F42F
:101C2400503811F4E0FF04C03196691F791F6BF03E
:101C340050E8572711F45F9373C05F3F31F0660F8C
:101C4400000C57956795752F08955F9300200AF04F
:101C540073C06CC050E8192E1522880F991F952760
:101C6400550F879550E8072E0522660F771F7527B5
:101C7400550F67950895689401C0E8945F93F2DF67
:101C8400703818F07F3F08F44BC056E1571BAAF494
:101C9400519558300EF4593030F0EFEFFFEF6FEFFD
:101CA4007FE777F91AC077275523B9F0EE0FFF1FA6
:101CB400661F771F5A95D1F710C07727583028F040
:101CC400EF2FF62F672F5850F9CF552331F0769523
:101CD4006795F795E7955A95D1F700200AF484D0D3
:101CE4005F910895689401C0E89430976040704013
:101CF400B1F0002426F0772312F4009475D0172E47
:101D04007EE1112032F07A95EE0FFF1F661F111C41
:101D1400F9CFEF2FF62F612D5F938ADF5F9108953E
:101D2400EE27FF27662777275F910895EFEFFFEFF0
:101D34006FE77FEF5F910895EFEFFFEF6FE77FE7C6
:101D44005F9108955F9386DF703851F3903841F3C3
:101D540001240894791F23F41CF300203AF3ECCFF8
:101D64000F921F932F933F934F9311272227992765
:101D7400689FA0018F9F302D410D591F6B9F300D1F
:101D8400411D591F8E9F27D0BF9F25D06A9F23D006
:101D9400BE9F1DD0AF9F1BD0AE9F110D291F391FB1
:101DA400491F591FE32FF42F652F522F4F913F9155
:101DB4002F911F910F9066232AF0550FEE1FFF1FDE
:101DC400661F02C073954BF229DF5F910895100DD1
:101DD400211D391F02C0200D311D491F591F0895AF
:101DE400F195E195F0400895F09560957095E19531
:101DF400FF4F6F4F7F4F0895EE230E2EEA2F19F0F9
:101E0400EE0F0A94E9F70895EE230E2EEA2F19F047
:101E1400E6950A94E9F708956F2F660F660B762FFF
:101E24000895EA17E1E009F4EE270895EE23E1E0CE
:101E340009F0EE270895FA9FF02DEB9FF00DEA9F2D
:101E4400E02DF10D08950024112490E1AA0FBB1F89
:101E5400001C111C0E1A1F0A18F40E0E1F1E01C0BE
:101E6400A1609A9599F7FD01D001089515D0EBDF93
:101E74000EF4B6DF0895E7DFFD010895E894B7FF97
:101E840004C0A095B09511966894F7FDA9DFDBDF37
:101E9400FD010EF4A5DF0895E894F7FF02C0A0DF6A
:101EA4006894B7FF06C0A095B095119600F8039406
:101EB40000FA0895ED91FC91119708950590F4911D
:101EC400E02D0895A591B49108951A2EAE2FE12D19
:101ED4000895E199FECFFF93FFB7F894AEBBBFBB63
:101EE400E09AEDB3FFBFFF910895E19B02C0A8956E
:101EF400FCCF9FB7F894AEBBBFBBE09A8DB3E81795
:101F040019F0EDBBE29AE19A9FBF089500240A16E6
:101F14000B0608955A934A933A932A931A930A9371
:101F240008955D814C813B812A811981088108953E
:00000001FF
